{
  "contractName": "Elections",
  "abi": [
    {
      "constant": true,
      "inputs": [
        {
          "name": "_electionID",
          "type": "uint256"
        }
      ],
      "name": "winner",
      "outputs": [
        {
          "name": "",
          "type": "string"
        }
      ],
      "payable": false,
      "stateMutability": "view",
      "type": "function"
    },
    {
      "constant": false,
      "inputs": [
        {
          "name": "_electionID",
          "type": "uint256"
        },
        {
          "name": "_candidateName",
          "type": "string"
        },
        {
          "name": "_candidateNumber",
          "type": "uint256"
        }
      ],
      "name": "addCandidates",
      "outputs": [],
      "payable": false,
      "stateMutability": "nonpayable",
      "type": "function"
    },
    {
      "constant": false,
      "inputs": [
        {
          "name": "_electionID",
          "type": "uint256"
        },
        {
          "name": "_email",
          "type": "string"
        }
      ],
      "name": "giveRightToVote",
      "outputs": [],
      "payable": false,
      "stateMutability": "nonpayable",
      "type": "function"
    },
    {
      "constant": true,
      "inputs": [
        {
          "name": "_electionID",
          "type": "uint256"
        },
        {
          "name": "_candidateID",
          "type": "uint256"
        }
      ],
      "name": "getCandidate",
      "outputs": [
        {
          "name": "",
          "type": "uint256"
        },
        {
          "name": "",
          "type": "string"
        },
        {
          "name": "",
          "type": "uint256"
        },
        {
          "name": "",
          "type": "uint256"
        }
      ],
      "payable": false,
      "stateMutability": "view",
      "type": "function"
    },
    {
      "constant": true,
      "inputs": [
        {
          "name": "",
          "type": "uint256"
        }
      ],
      "name": "elections",
      "outputs": [
        {
          "name": "_electionID",
          "type": "uint256"
        },
        {
          "name": "_electionAdmin",
          "type": "address"
        },
        {
          "name": "_electionName",
          "type": "string"
        },
        {
          "name": "_emailDomain",
          "type": "string"
        },
        {
          "name": "_openingTime",
          "type": "uint256"
        },
        {
          "name": "_closingTime",
          "type": "uint256"
        },
        {
          "name": "_candidatesCount",
          "type": "uint256"
        },
        {
          "name": "_votersCount",
          "type": "uint256"
        }
      ],
      "payable": false,
      "stateMutability": "view",
      "type": "function"
    },
    {
      "constant": false,
      "inputs": [
        {
          "name": "_electionName",
          "type": "string"
        },
        {
          "name": "_emailDomain",
          "type": "string"
        },
        {
          "name": "_openingTime",
          "type": "uint256"
        },
        {
          "name": "_closingTime",
          "type": "uint256"
        }
      ],
      "name": "createElection",
      "outputs": [],
      "payable": false,
      "stateMutability": "nonpayable",
      "type": "function"
    },
    {
      "constant": true,
      "inputs": [],
      "name": "electionCount",
      "outputs": [
        {
          "name": "",
          "type": "uint256"
        }
      ],
      "payable": false,
      "stateMutability": "view",
      "type": "function"
    },
    {
      "constant": false,
      "inputs": [
        {
          "name": "_electionID",
          "type": "uint256"
        },
        {
          "name": "_candidateID",
          "type": "uint256"
        }
      ],
      "name": "vote",
      "outputs": [],
      "payable": false,
      "stateMutability": "nonpayable",
      "type": "function"
    },
    {
      "constant": true,
      "inputs": [],
      "name": "contractOwner",
      "outputs": [
        {
          "name": "",
          "type": "address"
        }
      ],
      "payable": false,
      "stateMutability": "view",
      "type": "function"
    },
    {
      "inputs": [],
      "payable": false,
      "stateMutability": "nonpayable",
      "type": "constructor"
    }
  ],
  "bytecode": "0x6060604052341561000f57600080fd5b336000806101000a81548173ffffffffffffffffffffffffffffffffffffffff021916908373ffffffffffffffffffffffffffffffffffffffff1602179055506000600181905550611429806100666000396000f300606060405260043610610099576000357c0100000000000000000000000000000000000000000000000000000000900463ffffffff1680631cbeae5e1461009e578063328fb0821461013a57806349b4c61c146101a95780634bd464481461020f5780635e6fef01146102c95780637ad36e8414610461578063997d283014610513578063b384abef1461053c578063ce606ee014610568575b600080fd5b34156100a957600080fd5b6100bf60048080359060200190919050506105bd565b6040518080602001828103825283818151815260200191508051906020019080838360005b838110156100ff5780820151818401526020810190506100e4565b50505050905090810190601f16801561012c5780820380516001836020036101000a031916815260200191505b509250505060405180910390f35b341561014557600080fd5b6101a7600480803590602001909190803590602001908201803590602001908080601f01602080910402602001604051908101604052809392919081815260200183838082843782019150505050505091908035906020019091905050610730565b005b34156101b457600080fd5b61020d600480803590602001909190803590602001908201803590602001908080601f01602080910402602001604051908101604052809392919081815260200183838082843782019150505050505091905050610985565b005b341561021a57600080fd5b6102396004808035906020019091908035906020019091905050610d25565b6040518085815260200180602001848152602001838152602001828103825285818151815260200191508051906020019080838360005b8381101561028b578082015181840152602081019050610270565b50505050905090810190601f1680156102b85780820380516001836020036101000a031916815260200191505b509550505050505060405180910390f35b34156102d457600080fd5b6102ea6004808035906020019091905050610e58565b604051808981526020018873ffffffffffffffffffffffffffffffffffffffff1673ffffffffffffffffffffffffffffffffffffffff16815260200180602001806020018781526020018681526020018581526020018481526020018381038352898181546001816001161561010002031660029004815260200191508054600181600116156101000203166002900480156103c75780601f1061039c576101008083540402835291602001916103c7565b820191906000526020600020905b8154815290600101906020018083116103aa57829003601f168201915b505083810382528881815460018160011615610100020316600290048152602001915080546001816001161561010002031660029004801561044a5780601f1061041f5761010080835404028352916020019161044a565b820191906000526020600020905b81548152906001019060200180831161042d57829003601f168201915b50509a505050505050505050505060405180910390f35b341561046c57600080fd5b610511600480803590602001908201803590602001908080601f0160208091040260200160405190810160405280939291908181526020018383808284378201915050505050509190803590602001908201803590602001908080601f01602080910402602001604051908101604052809392919081815260200183838082843782019150505050505091908035906020019091908035906020019091905050610ebe565b005b341561051e57600080fd5b610526611098565b6040518082815260200191505060405180910390f35b341561054757600080fd5b610566600480803590602001909190803590602001909190505061109e565b005b341561057357600080fd5b61057b6112dc565b604051808273ffffffffffffffffffffffffffffffffffffffff1673ffffffffffffffffffffffffffffffffffffffff16815260200191505060405180910390f35b6105c5611301565b60006105cf611301565b600060026000868152602001908152602001600020600501548042101515156105f757600080fd5b60009350600191505b6002600087815260200190815260200160002060070154821115156107245783600260008881526020019081526020016000206006016000848152602001908152602001600020600301541115610717576002600087815260200190815260200160002060060160008381526020019081526020016000206001018054600181600116156101000203166002900480601f01602080910402602001604051908101604052809291908181526020018280546001816001161561010002031660029004801561070f5780601f106106e45761010080835404028352916020019161070f565b820191906000526020600020905b8154815290600101906020018083116106f257829003601f168201915b505050505092505b8180600101925050610600565b82945050505050919050565b6002600084815260200190815260200160002060040154421080151561075557600080fd5b6002600085815260200190815260200160002060010160009054906101000a900473ffffffffffffffffffffffffffffffffffffffff1673ffffffffffffffffffffffffffffffffffffffff163373ffffffffffffffffffffffffffffffffffffffff16148061081157506000809054906101000a900473ffffffffffffffffffffffffffffffffffffffff1673ffffffffffffffffffffffffffffffffffffffff163373ffffffffffffffffffffffffffffffffffffffff16145b80151561081d57600080fd5b600260008681526020019081526020016000206007016000815480929190600101919050555060026000868152602001908152602001600020600701546002600087815260200190815260200160002060060160006002600089815260200190815260200160002060070154815260200190815260200160002060000181905550836002600087815260200190815260200160002060060160006002600089815260200190815260200160002060070154815260200190815260200160002060010190805190602001906108f2929190611315565b50826002600087815260200190815260200160002060060160006002600089815260200190815260200160002060070154815260200190815260200160002060020181905550600060026000878152602001908152602001600020600601600060026000898152602001908152602001600020600701548152602001908152602001600020600301819055505050505050565b600073ffffffffffffffffffffffffffffffffffffffff1660026000848152602001908152602001600020600901826040518082805190602001908083835b6020831015156109e957805182526020820191506020810190506020830392506109c4565b6001836020036101000a038019825116818451168082178552505050505050905001915050908152602001604051809103902060009054906101000a900473ffffffffffffffffffffffffffffffffffffffff1673ffffffffffffffffffffffffffffffffffffffff16141515610a5f57600080fd5b60026000838152602001908152602001600020600a01600081548092919060010191905055503360026000848152602001908152602001600020600901826040518082805190602001908083835b602083101515610ad25780518252602082019150602081019050602083039250610aad565b6001836020036101000a038019825116818451168082178552505050505050905001915050908152602001604051809103902060006101000a81548173ffffffffffffffffffffffffffffffffffffffff021916908373ffffffffffffffffffffffffffffffffffffffff160217905550336002600084815260200190815260200160002060080160003373ffffffffffffffffffffffffffffffffffffffff1673ffffffffffffffffffffffffffffffffffffffff16815260200190815260200160002060000160006101000a81548173ffffffffffffffffffffffffffffffffffffffff021916908373ffffffffffffffffffffffffffffffffffffffff160217905550806002600084815260200190815260200160002060080160003373ffffffffffffffffffffffffffffffffffffffff1673ffffffffffffffffffffffffffffffffffffffff1681526020019081526020016000206001019080519060200190610c42929190611315565b5060016002600084815260200190815260200160002060080160003373ffffffffffffffffffffffffffffffffffffffff1673ffffffffffffffffffffffffffffffffffffffff16815260200190815260200160002060020160006101000a81548160ff02191690831515021790555060006002600084815260200190815260200160002060080160003373ffffffffffffffffffffffffffffffffffffffff1673ffffffffffffffffffffffffffffffffffffffff16815260200190815260200160002060020160016101000a81548160ff0219169083151502179055505050565b6000610d2f611301565b600080610d3a611395565b6002600088815260200190815260200160002060060160008781526020019081526020016000206080604051908101604052908160008201548152602001600182018054600181600116156101000203166002900480601f016020809104026020016040519081016040528092919081815260200182805460018160011615610100020316600290048015610e105780601f10610de557610100808354040283529160200191610e10565b820191906000526020600020905b815481529060010190602001808311610df357829003601f168201915b50505050508152602001600282015481526020016003820154815250509050806000015181602001518260400151836060015182925094509450945094505092959194509250565b60026020528060005260406000206000915090508060000154908060010160009054906101000a900473ffffffffffffffffffffffffffffffffffffffff16908060020190806003019080600401549080600501549080600701549080600a0154905088565b6000809054906101000a900473ffffffffffffffffffffffffffffffffffffffff1673ffffffffffffffffffffffffffffffffffffffff163373ffffffffffffffffffffffffffffffffffffffff16141515610f1957600080fd5b600160008154809291906001019190505550600154600260006001548152602001908152602001600020600001819055506000809054906101000a900473ffffffffffffffffffffffffffffffffffffffff1660026000600154815260200190815260200160002060010160006101000a81548173ffffffffffffffffffffffffffffffffffffffff021916908373ffffffffffffffffffffffffffffffffffffffff160217905550836002600060015481526020019081526020016000206002019080519060200190610fee929190611315565b5082600260006001548152602001908152602001600020600301908051906020019061101b929190611315565b50816002600060015481526020019081526020016000206004018190555080600260006001548152602001908152602001600020600501819055506000600260006001548152602001908152602001600020600701819055506000600260006001548152602001908152602001600020600a018190555050505050565b60015481565b600260008381526020019081526020016000206004015460026000848152602001908152602001600020600501548142101580156110db57508042105b15156110e657600080fd5b600115156002600086815260200190815260200160002060080160003373ffffffffffffffffffffffffffffffffffffffff1673ffffffffffffffffffffffffffffffffffffffff16815260200190815260200160002060020160009054906101000a900460ff16151514151561115c57600080fd5b600015156002600086815260200190815260200160002060080160003373ffffffffffffffffffffffffffffffffffffffff1673ffffffffffffffffffffffffffffffffffffffff16815260200190815260200160002060020160019054906101000a900460ff1615151415156111d257600080fd5b60016002600086815260200190815260200160002060080160003373ffffffffffffffffffffffffffffffffffffffff1673ffffffffffffffffffffffffffffffffffffffff16815260200190815260200160002060020160016101000a81548160ff021916908315150217905550826002600086815260200190815260200160002060080160003373ffffffffffffffffffffffffffffffffffffffff1673ffffffffffffffffffffffffffffffffffffffff168152602001908152602001600020600301819055506002600085815260200190815260200160002060060160008481526020019081526020016000206003016000815480929190600101919050555050505050565b6000809054906101000a900473ffffffffffffffffffffffffffffffffffffffff1681565b602060405190810160405280600081525090565b828054600181600116156101000203166002900490600052602060002090601f016020900481019282601f1061135657805160ff1916838001178555611384565b82800160010185558215611384579182015b82811115611383578251825591602001919060010190611368565b5b50905061139191906113c4565b5090565b608060405190810160405280600081526020016113b06113e9565b815260200160008152602001600081525090565b6113e691905b808211156113e25760008160009055506001016113ca565b5090565b90565b6020604051908101604052806000815250905600a165627a7a723058204f7f938097f7664e6a5e7ca6172223c598bff89b4f9bb6dd780d40cb8bae9ec90029",
  "source": "pragma solidity >=0.4.17 <0.6.0;\r\n\r\ncontract Elections {\r\n    \r\n    struct Voter {\r\n        address _id;\r\n        string _email;\r\n        bool _rightToVote;\r\n        bool _isVoted;\r\n        uint256 _vote;\r\n    }\r\n    \r\n    struct Candidate {\r\n        uint256 _id;\r\n        string _name;\r\n        uint256 _number;\r\n        uint256 _voteCount;\r\n    }\r\n    \r\n    struct Election {\r\n        uint256 _electionID;\r\n        address _electionAdmin;\r\n        string _electionName;\r\n        string _emailDomain;\r\n        uint256 _openingTime;\r\n        uint256 _closingTime;\r\n        mapping(uint256 => Candidate) _candidates;\r\n        uint256 _candidatesCount;\r\n        mapping(address => Voter) _voters;\r\n        mapping(string => address) _emailToAdress;\r\n        uint256 _votersCount;\r\n    }\r\n    \r\n    address public contractOwner;\r\n    uint256 public electionCount;\r\n    mapping(uint256 => Election) public elections;\r\n    \r\n    function Elections() public {\r\n        contractOwner = msg.sender;\r\n        electionCount = 0;\r\n    }\r\n    \r\n    modifier onlyOwner() {\r\n        require (msg.sender == contractOwner);\r\n        _;\r\n    }\r\n\r\n    modifier onlyWhileOpen(uint256 _openingTime, uint256 _closingTime) { \r\n        require (block.timestamp >= _openingTime && block.timestamp < _closingTime); \r\n        _; \r\n    }\r\n    \r\n    modifier onlyWhenOver(uint256 _closingTime) { \r\n        require (block.timestamp >= _closingTime); \r\n        _; \r\n    }\r\n\r\n    modifier condition(bool _condition) {\r\n    \trequire (_condition);\r\n    \t_;\r\n    }\r\n    \r\n    function getCandidate(uint256 _electionID, uint256 _candidateID)\r\n        public view returns(uint256, string memory, uint256, uint256) {\r\n        \r\n        Candidate memory candidate = elections[_electionID]._candidates[_candidateID];\r\n        \r\n        return (candidate._id, candidate._name, candidate._number, candidate._voteCount);\r\n    }\r\n    \r\n    function createElection( \r\n        string memory _electionName,\r\n    \tstring memory _emailDomain, \r\n    \tuint256 _openingTime, \r\n    \tuint256 _closingTime)\r\n    public onlyOwner {\r\n        \r\n        electionCount ++;\r\n        elections[electionCount]._electionID = electionCount;\r\n        elections[electionCount]._electionAdmin = contractOwner;\r\n        elections[electionCount]._electionName = _electionName;\r\n        elections[electionCount]._emailDomain = _emailDomain;\r\n        elections[electionCount]._openingTime = _openingTime;\r\n        elections[electionCount]._closingTime = _closingTime;\r\n        elections[electionCount]._candidatesCount = 0;\r\n        elections[electionCount]._votersCount = 0;\r\n\r\n    }\r\n    \r\n    function addCandidates(\r\n    \tuint256 _electionID, \r\n    \tstring memory _candidateName, \r\n    \tuint256 _candidateNumber) \r\n    public \r\n    condition(now < elections[_electionID]._openingTime)\r\n    condition(msg.sender == elections[_electionID]._electionAdmin || msg.sender == contractOwner) {\r\n        \r\n        elections[_electionID]._candidatesCount ++;\r\n        elections[_electionID]._candidates[elections[_electionID]._candidatesCount]._id = elections[_electionID]._candidatesCount;\r\n        elections[_electionID]._candidates[elections[_electionID]._candidatesCount]._name = _candidateName;\r\n        elections[_electionID]._candidates[elections[_electionID]._candidatesCount]._number = _candidateNumber;\r\n        elections[_electionID]._candidates[elections[_electionID]._candidatesCount]._voteCount = 0;\r\n\r\n    }        \r\n    \r\n    function giveRightToVote(\r\n        uint256 _electionID, \r\n        string memory _email)\r\n    public {\r\n        \r\n        require(elections[_electionID]._emailToAdress[_email] == 0x0000000000000000000000000000000000000000);\r\n        elections[_electionID]._votersCount ++;\r\n        elections[_electionID]._emailToAdress[_email] = msg.sender;\r\n        elections[_electionID]._voters[msg.sender]._id = msg.sender;\r\n        elections[_electionID]._voters[msg.sender]._email = _email;\r\n        elections[_electionID]._voters[msg.sender]._rightToVote = true;\r\n        elections[_electionID]._voters[msg.sender]._isVoted = false;\r\n        \r\n    }\r\n    \r\n    function vote(\r\n        uint256 _electionID, \r\n        uint256 _candidateID) \r\n    public \r\n    onlyWhileOpen(elections[_electionID]._openingTime, elections[_electionID]._closingTime) {\r\n\r\n    \trequire(elections[_electionID]._voters[msg.sender]._rightToVote == true);\r\n    \trequire(elections[_electionID]._voters[msg.sender]._isVoted == false);\r\n        \r\n    \telections[_electionID]._voters[msg.sender]._isVoted = true;\r\n    \telections[_electionID]._voters[msg.sender]._vote = _candidateID;\r\n    \telections[_electionID]._candidates[_candidateID]._voteCount ++;\r\n        \r\n    }\r\n    \r\n    function winner(\r\n        uint256 _electionID) \r\n    public \r\n    onlyWhenOver(elections[_electionID]._closingTime)\r\n    view \r\n    returns(string memory) {\r\n\r\n        uint256 voteCounts = 0;\r\n        string memory _winnerName;\r\n\r\n        for (uint i = 1; i <= elections[_electionID]._candidatesCount; i++) {\r\n            if (elections[_electionID]._candidates[i]._voteCount > voteCounts) {\r\n                _winnerName = elections[_electionID]._candidates[i]._name;\r\n            }\r\n        }\r\n\r\n        return _winnerName;\r\n        \r\n    }\r\n \r\n    \r\n}",
  "sourcePath": "C:\\Users\\Amaury\\Desktop\\Amaury\\Projetos-Web\\Blockchain-Based-Elections\\backend\\contracts\\Elections.sol",
  "compiler": {
    "name": "solc",
    "version": "0.4.18+commit.9cf6e910.Emscripten.clang"
  },
  "schemaVersion": "1.0.1",
  "updatedAt": "2019-05-24T01:40:37.804Z"
}