{
  "contractName": "Election",
  "abi": [
    {
      "constant": false,
      "inputs": [
        {
          "name": "_electionName",
          "type": "string"
        },
        {
          "name": "_email",
          "type": "string"
        }
      ],
      "name": "giveRightToVote",
      "outputs": [],
      "payable": false,
      "stateMutability": "nonpayable",
      "type": "function"
    },
    {
      "constant": false,
      "inputs": [
        {
          "name": "_electionName",
          "type": "string"
        },
        {
          "name": "_candidateName",
          "type": "string"
        },
        {
          "name": "_candidateNumber",
          "type": "uint256"
        }
      ],
      "name": "addCandidates",
      "outputs": [],
      "payable": false,
      "stateMutability": "nonpayable",
      "type": "function"
    },
    {
      "constant": true,
      "inputs": [
        {
          "name": "_electionName",
          "type": "string"
        }
      ],
      "name": "winner",
      "outputs": [
        {
          "name": "",
          "type": "string"
        }
      ],
      "payable": false,
      "stateMutability": "view",
      "type": "function"
    },
    {
      "constant": false,
      "inputs": [
        {
          "name": "_electionName",
          "type": "string"
        },
        {
          "name": "_emailDomain",
          "type": "string"
        },
        {
          "name": "_openingTime",
          "type": "uint256"
        },
        {
          "name": "_closingTime",
          "type": "uint256"
        }
      ],
      "name": "createElection",
      "outputs": [],
      "payable": false,
      "stateMutability": "nonpayable",
      "type": "function"
    },
    {
      "constant": true,
      "inputs": [],
      "name": "electionCount",
      "outputs": [
        {
          "name": "",
          "type": "uint256"
        }
      ],
      "payable": false,
      "stateMutability": "view",
      "type": "function"
    },
    {
      "constant": false,
      "inputs": [
        {
          "name": "_electionName",
          "type": "string"
        },
        {
          "name": "_candidateNumber",
          "type": "uint256"
        }
      ],
      "name": "vote",
      "outputs": [],
      "payable": false,
      "stateMutability": "nonpayable",
      "type": "function"
    },
    {
      "constant": true,
      "inputs": [],
      "name": "contractOwner",
      "outputs": [
        {
          "name": "",
          "type": "address"
        }
      ],
      "payable": false,
      "stateMutability": "view",
      "type": "function"
    },
    {
      "inputs": [],
      "payable": false,
      "stateMutability": "nonpayable",
      "type": "constructor"
    }
  ],
  "bytecode": "0x6060604052341561000f57600080fd5b336000806101000a81548173ffffffffffffffffffffffffffffffffffffffff021916908373ffffffffffffffffffffffffffffffffffffffff1602179055506000600181905550611d66806100666000396000f300606060405260043610610083576000357c0100000000000000000000000000000000000000000000000000000000900463ffffffff1680630fc720dc1461008857806323efac84146101285780632836fc15146101d15780637ad36e84146102a7578063997d283014610359578063a638580314610382578063ce606ee0146103e8575b600080fd5b341561009357600080fd5b610126600480803590602001908201803590602001908080601f0160208091040260200160405190810160405280939291908181526020018383808284378201915050505050509190803590602001908201803590602001908080601f0160208091040260200160405190810160405280939291908181526020018383808284378201915050505050509190505061043d565b005b341561013357600080fd5b6101cf600480803590602001908201803590602001908080601f0160208091040260200160405190810160405280939291908181526020018383808284378201915050505050509190803590602001908201803590602001908080601f01602080910402602001604051908101604052809392919081815260200183838082843782019150505050505091908035906020019091905050610a45565b005b34156101dc57600080fd5b61022c600480803590602001908201803590602001908080601f01602080910402602001604051908101604052809392919081815260200183838082843782019150505050505091905050611049565b6040518080602001828103825283818151815260200191508051906020019080838360005b8381101561026c578082015181840152602081019050610251565b50505050905090810190601f1680156102995780820380516001836020036101000a031916815260200191505b509250505060405180910390f35b34156102b257600080fd5b610357600480803590602001908201803590602001908080601f0160208091040260200160405190810160405280939291908181526020018383808284378201915050505050509190803590602001908201803590602001908080601f0160208091040260200160405190810160405280939291908181526020018383808284378201915050505050509190803590602001909190803590602001909190505061131c565b005b341561036457600080fd5b61036c611731565b6040518082815260200191505060405180910390f35b341561038d57600080fd5b6103e6600480803590602001908201803590602001908080601f01602080910402602001604051908101604052809392919081815260200183838082843782019150505050505091908035906020019091905050611737565b005b34156103f357600080fd5b6103fb611c5c565b604051808273ffffffffffffffffffffffffffffffffffffffff1673ffffffffffffffffffffffffffffffffffffffff16815260200191505060405180910390f35b600073ffffffffffffffffffffffffffffffffffffffff166002836040518082805190602001908083835b60208310151561048d5780518252602082019150602081019050602083039250610468565b6001836020036101000a0380198251168184511680821785525050505050509050019150509081526020016040518091039020600901826040518082805190602001908083835b6020831015156104f957805182526020820191506020810190506020830392506104d4565b6001836020036101000a038019825116818451168082178552505050505050905001915050908152602001604051809103902060009054906101000a900473ffffffffffffffffffffffffffffffffffffffff1673ffffffffffffffffffffffffffffffffffffffff1614151561056f57600080fd5b6002826040518082805190602001908083835b6020831015156105a75780518252602082019150602081019050602083039250610582565b6001836020036101000a0380198251168184511680821785525050505050509050019150509081526020016040518091039020600a0160008154809291906001019190505550336002836040518082805190602001908083835b6020831015156106265780518252602082019150602081019050602083039250610601565b6001836020036101000a0380198251168184511680821785525050505050509050019150509081526020016040518091039020600901826040518082805190602001908083835b602083101515610692578051825260208201915060208101905060208303925061066d565b6001836020036101000a038019825116818451168082178552505050505050905001915050908152602001604051809103902060006101000a81548173ffffffffffffffffffffffffffffffffffffffff021916908373ffffffffffffffffffffffffffffffffffffffff160217905550336002836040518082805190602001908083835b60208310151561073c5780518252602082019150602081019050602083039250610717565b6001836020036101000a038019825116818451168082178552505050505050905001915050908152602001604051809103902060080160003373ffffffffffffffffffffffffffffffffffffffff1673ffffffffffffffffffffffffffffffffffffffff16815260200190815260200160002060000160006101000a81548173ffffffffffffffffffffffffffffffffffffffff021916908373ffffffffffffffffffffffffffffffffffffffff160217905550806002836040518082805190602001908083835b6020831015156108295780518252602082019150602081019050602083039250610804565b6001836020036101000a038019825116818451168082178552505050505050905001915050908152602001604051809103902060080160003373ffffffffffffffffffffffffffffffffffffffff1673ffffffffffffffffffffffffffffffffffffffff16815260200190815260200160002060010190805190602001906108b2929190611c81565b5060016002836040518082805190602001908083835b6020831015156108ed57805182526020820191506020810190506020830392506108c8565b6001836020036101000a038019825116818451168082178552505050505050905001915050908152602001604051809103902060080160003373ffffffffffffffffffffffffffffffffffffffff1673ffffffffffffffffffffffffffffffffffffffff16815260200190815260200160002060020160006101000a81548160ff02191690831515021790555060006002836040518082805190602001908083835b6020831015156109b4578051825260208201915060208101905060208303925061098f565b6001836020036101000a038019825116818451168082178552505050505050905001915050908152602001604051809103902060080160003373ffffffffffffffffffffffffffffffffffffffff1673ffffffffffffffffffffffffffffffffffffffff16815260200190815260200160002060020160016101000a81548160ff0219169083151502179055505050565b6002836040518082805190602001908083835b602083101515610a7d5780518252602082019150602081019050602083039250610a58565b6001836020036101000a0380198251168184511680821785525050505050509050019150509081526020016040518091039020600301544211801515610ac257600080fd5b6002846040518082805190602001908083835b602083101515610afa5780518252602082019150602081019050602083039250610ad5565b6001836020036101000a038019825116818451168082178552505050505050905001915050908152602001604051809103902060000160009054906101000a900473ffffffffffffffffffffffffffffffffffffffff1673ffffffffffffffffffffffffffffffffffffffff163373ffffffffffffffffffffffffffffffffffffffff161480610bd657506000809054906101000a900473ffffffffffffffffffffffffffffffffffffffff1673ffffffffffffffffffffffffffffffffffffffff163373ffffffffffffffffffffffffffffffffffffffff16145b801515610be257600080fd5b6002856040518082805190602001908083835b602083101515610c1a5780518252602082019150602081019050602083039250610bf5565b6001836020036101000a0380198251168184511680821785525050505050509050019150509081526020016040518091039020600701600081548092919060010191905055506002856040518082805190602001908083835b602083101515610c985780518252602082019150602081019050602083039250610c73565b6001836020036101000a0380198251168184511680821785525050505050509050019150509081526020016040518091039020600701546002866040518082805190602001908083835b602083101515610d075780518252602082019150602081019050602083039250610ce2565b6001836020036101000a0380198251168184511680821785525050505050509050019150509081526020016040518091039020600601600085815260200190815260200160002081905550836002866040518082805190602001908083835b602083101515610d8b5780518252602082019150602081019050602083039250610d66565b6001836020036101000a038019825116818451168082178552505050505050905001915050908152602001604051809103902060050160006002886040518082805190602001908083835b602083101515610dfb5780518252602082019150602081019050602083039250610dd6565b6001836020036101000a03801982511681845116808217855250505050505090500191505090815260200160405180910390206007015481526020019081526020016000206000019080519060200190610e56929190611c81565b50826002866040518082805190602001908083835b602083101515610e905780518252602082019150602081019050602083039250610e6b565b6001836020036101000a038019825116818451168082178552505050505050905001915050908152602001604051809103902060050160006002886040518082805190602001908083835b602083101515610f005780518252602082019150602081019050602083039250610edb565b6001836020036101000a03801982511681845116808217855250505050505090500191505090815260200160405180910390206007015481526020019081526020016000206001018190555060006002866040518082805190602001908083835b602083101515610f865780518252602082019150602081019050602083039250610f61565b6001836020036101000a038019825116818451168082178552505050505050905001915050908152602001604051809103902060050160006002886040518082805190602001908083835b602083101515610ff65780518252602082019150602081019050602083039250610fd1565b6001836020036101000a0380198251168184511680821785525050505050509050019150509081526020016040518091039020600701548152602001908152602001600020600201819055505050505050565b611051611d01565b600061105b611d01565b60006002856040518082805190602001908083835b6020831015156110955780518252602082019150602081019050602083039250611070565b6001836020036101000a0380198251168184511680821785525050505050509050019150509081526020016040518091039020600401548042101515156110db57600080fd5b60009350600191505b6002866040518082805190602001908083835b60208310151561111c57805182526020820191506020810190506020830392506110f7565b6001836020036101000a0380198251168184511680821785525050505050509050019150509081526020016040518091039020600701548211151561131057836002876040518082805190602001908083835b602083101515611194578051825260208201915060208101905060208303925061116f565b6001836020036101000a03801982511681845116808217855250505050505090500191505090815260200160405180910390206005016000848152602001908152602001600020600201541115611303576002866040518082805190602001908083835b60208310151561121d57805182526020820191506020810190506020830392506111f8565b6001836020036101000a038019825116818451168082178552505050505050905001915050908152602001604051809103902060050160008381526020019081526020016000206000018054600181600116156101000203166002900480601f0160208091040260200160405190810160405280929190818152602001828054600181600116156101000203166002900480156112fb5780601f106112d0576101008083540402835291602001916112fb565b820191906000526020600020905b8154815290600101906020018083116112de57829003601f168201915b505050505092505b81806001019250506110e4565b82945050505050919050565b6000809054906101000a900473ffffffffffffffffffffffffffffffffffffffff1673ffffffffffffffffffffffffffffffffffffffff163373ffffffffffffffffffffffffffffffffffffffff1614151561137757600080fd5b6001600081548092919060010191905055506000809054906101000a900473ffffffffffffffffffffffffffffffffffffffff166002856040518082805190602001908083835b6020831015156113e357805182526020820191506020810190506020830392506113be565b6001836020036101000a038019825116818451168082178552505050505050905001915050908152602001604051809103902060000160006101000a81548173ffffffffffffffffffffffffffffffffffffffff021916908373ffffffffffffffffffffffffffffffffffffffff160217905550836002856040518082805190602001908083835b602083101515611490578051825260208201915060208101905060208303925061146b565b6001836020036101000a038019825116818451168082178552505050505050905001915050908152602001604051809103902060010190805190602001906114d9929190611c81565b50826002856040518082805190602001908083835b60208310151561151357805182526020820191506020810190506020830392506114ee565b6001836020036101000a0380198251168184511680821785525050505050509050019150509081526020016040518091039020600201908051906020019061155c929190611c81565b50816002856040518082805190602001908083835b6020831015156115965780518252602082019150602081019050602083039250611571565b6001836020036101000a038019825116818451168082178552505050505050905001915050908152602001604051809103902060030181905550806002856040518082805190602001908083835b60208310151561160957805182526020820191506020810190506020830392506115e4565b6001836020036101000a03801982511681845116808217855250505050505090500191505090815260200160405180910390206004018190555060006002856040518082805190602001908083835b60208310151561167d5780518252602082019150602081019050602083039250611658565b6001836020036101000a03801982511681845116808217855250505050505090500191505090815260200160405180910390206007018190555060006002856040518082805190602001908083835b6020831015156116f157805182526020820191506020810190506020830392506116cc565b6001836020036101000a0380198251168184511680821785525050505050509050019150509081526020016040518091039020600a018190555050505050565b60015481565b6002826040518082805190602001908083835b60208310151561176f578051825260208201915060208101905060208303925061174a565b6001836020036101000a0380198251168184511680821785525050505050509050019150509081526020016040518091039020600301546002836040518082805190602001908083835b6020831015156117de57805182526020820191506020810190506020830392506117b9565b6001836020036101000a03801982511681845116808217855250505050505090500191505090815260200160405180910390206004015481421015801561182457508042105b151561182f57600080fd5b600115156002856040518082805190602001908083835b60208310151561186b5780518252602082019150602081019050602083039250611846565b6001836020036101000a038019825116818451168082178552505050505050905001915050908152602001604051809103902060080160003373ffffffffffffffffffffffffffffffffffffffff1673ffffffffffffffffffffffffffffffffffffffff16815260200190815260200160002060020160009054906101000a900460ff1615151415156118fd57600080fd5b600015156002856040518082805190602001908083835b6020831015156119395780518252602082019150602081019050602083039250611914565b6001836020036101000a038019825116818451168082178552505050505050905001915050908152602001604051809103902060080160003373ffffffffffffffffffffffffffffffffffffffff1673ffffffffffffffffffffffffffffffffffffffff16815260200190815260200160002060020160019054906101000a900460ff1615151415156119cb57600080fd5b60016002856040518082805190602001908083835b602083101515611a0557805182526020820191506020810190506020830392506119e0565b6001836020036101000a038019825116818451168082178552505050505050905001915050908152602001604051809103902060080160003373ffffffffffffffffffffffffffffffffffffffff1673ffffffffffffffffffffffffffffffffffffffff16815260200190815260200160002060020160016101000a81548160ff021916908315150217905550826002856040518082805190602001908083835b602083101515611acb5780518252602082019150602081019050602083039250611aa6565b6001836020036101000a038019825116818451168082178552505050505050905001915050908152602001604051809103902060080160003373ffffffffffffffffffffffffffffffffffffffff1673ffffffffffffffffffffffffffffffffffffffff168152602001908152602001600020600301819055506002846040518082805190602001908083835b602083101515611b7d5780518252602082019150602081019050602083039250611b58565b6001836020036101000a038019825116818451168082178552505050505050905001915050908152602001604051809103902060050160006002866040518082805190602001908083835b602083101515611bed5780518252602082019150602081019050602083039250611bc8565b6001836020036101000a038019825116818451168082178552505050505050905001915050908152602001604051809103902060060160008681526020019081526020016000205481526020019081526020016000206002016000815480929190600101919050555050505050565b6000809054906101000a900473ffffffffffffffffffffffffffffffffffffffff1681565b828054600181600116156101000203166002900490600052602060002090601f016020900481019282601f10611cc257805160ff1916838001178555611cf0565b82800160010185558215611cf0579182015b82811115611cef578251825591602001919060010190611cd4565b5b509050611cfd9190611d15565b5090565b602060405190810160405280600081525090565b611d3791905b80821115611d33576000816000905550600101611d1b565b5090565b905600a165627a7a7230582096f5745523130232ad93f6ae40ea7083ef4c9d785e22291643b26558f5f576f20029",
  "source": "pragma solidity ^0.4.2;\r\n\r\ncontract Election {\r\n    \r\n    struct Voter {\r\n        address _id;\r\n        string _email;\r\n        bool _rightToVote;\r\n        bool _isVoted;\r\n        uint256 _vote;\r\n    }\r\n    \r\n    struct Candidate {\r\n        string _name;\r\n        uint256 _number;\r\n        uint256 _voteCount;\r\n    }\r\n    \r\n    struct Elections {\r\n        address _electionAdmin;\r\n        string _electionName;\r\n        string _emailDomain;\r\n        uint256 _openingTime;\r\n        uint256 _closingTime;\r\n        mapping(uint256 => Candidate) _candidates;\r\n        mapping(uint256 => uint256) _candidateNumberToID;\r\n        uint256 _candidatesCount;\r\n        mapping(address => Voter) _voters;\r\n        mapping(string => address) _emailToAdress;\r\n        uint256 _votersCount;\r\n    }\r\n    \r\n    address public contractOwner;\r\n    uint256 public electionCount;\r\n    mapping(string => Elections) elections;\r\n    \r\n    function Election() public {\r\n        contractOwner = msg.sender;\r\n        electionCount = 0;\r\n    }\r\n    \r\n    modifier onlyOwner() {\r\n        require (msg.sender == contractOwner);\r\n        _;\r\n    }\r\n\r\n    modifier onlyWhileOpen(uint256 _openingTime, uint256 _closingTime) { \r\n        require (block.timestamp >= _openingTime && block.timestamp < _closingTime); \r\n        _; \r\n    }\r\n    \r\n    modifier onlyWhenOver(uint256 _closingTime) { \r\n        require (block.timestamp >= _closingTime); \r\n        _; \r\n    }\r\n\r\n    modifier condition(bool _condition) {\r\n    \trequire (_condition);\r\n    \t_;\r\n    }\r\n    \r\n    function createElection( \r\n    \tstring memory _electionName, \r\n    \tstring memory _emailDomain, \r\n    \tuint256 _openingTime, \r\n    \tuint256 _closingTime)\r\n    public onlyOwner {\r\n        \r\n        electionCount ++;\r\n        elections[_electionName]._electionAdmin = contractOwner;\r\n        elections[_electionName]._electionName = _electionName;\r\n        elections[_electionName]._emailDomain = _emailDomain;\r\n        elections[_electionName]._openingTime = _openingTime;\r\n        elections[_electionName]._closingTime = _closingTime;\r\n        elections[_electionName]._candidatesCount = 0;\r\n        elections[_electionName]._votersCount = 0;\r\n\r\n    }\r\n    \r\n    function addCandidates(\r\n    \tstring memory _electionName, \r\n    \tstring memory _candidateName, \r\n    \tuint256 _candidateNumber) \r\n    public \r\n    condition(now > elections[_electionName]._openingTime)\r\n    condition(msg.sender == elections[_electionName]._electionAdmin || msg.sender == contractOwner) {\r\n        \r\n        elections[_electionName]._candidatesCount ++;\r\n        elections[_electionName]._candidateNumberToID[_candidateNumber] = elections[_electionName]._candidatesCount;\r\n        elections[_electionName]._candidates[elections[_electionName]._candidatesCount]._name = _candidateName;\r\n        elections[_electionName]._candidates[elections[_electionName]._candidatesCount]._number = _candidateNumber;\r\n        elections[_electionName]._candidates[elections[_electionName]._candidatesCount]._voteCount = 0;\r\n\r\n    }        \r\n    \r\n    function giveRightToVote(string memory _electionName, string memory _email) public {\r\n        \r\n        require(elections[_electionName]._emailToAdress[_email] == 0x0000000000000000000000000000000000000000);\r\n        elections[_electionName]._votersCount ++;\r\n        elections[_electionName]._emailToAdress[_email] = msg.sender;\r\n        elections[_electionName]._voters[msg.sender]._id = msg.sender;\r\n        elections[_electionName]._voters[msg.sender]._email = _email;\r\n        elections[_electionName]._voters[msg.sender]._rightToVote = true;\r\n        elections[_electionName]._voters[msg.sender]._isVoted = false;\r\n        \r\n    }\r\n    \r\n    function vote(\r\n        string memory _electionName, \r\n        uint256 _candidateNumber) \r\n    public \r\n    onlyWhileOpen(elections[_electionName]._openingTime, elections[_electionName]._closingTime) {\r\n\r\n    \trequire(elections[_electionName]._voters[msg.sender]._rightToVote == true);\r\n    \trequire(elections[_electionName]._voters[msg.sender]._isVoted == false);\r\n        \r\n    \telections[_electionName]._voters[msg.sender]._isVoted = true;\r\n    \telections[_electionName]._voters[msg.sender]._vote = _candidateNumber;\r\n    \telections[_electionName]._candidates[elections[_electionName]._candidateNumberToID[_candidateNumber]]._voteCount ++;\r\n        \r\n    }\r\n    \r\n    function winner(\r\n        string memory _electionName) \r\n    public \r\n    onlyWhenOver(elections[_electionName]._closingTime) \r\n    view \r\n    returns(string memory) {\r\n\r\n        uint256 voteCounts = 0;\r\n        string memory _winnerName;\r\n\r\n        for (uint i = 1; i <= elections[_electionName]._candidatesCount; i++) {\r\n            if (elections[_electionName]._candidates[i]._voteCount > voteCounts){\r\n                _winnerName = elections[_electionName]._candidates[i]._name;\r\n            }\r\n        }\r\n\r\n        return _winnerName;\r\n        \r\n    }\r\n \r\n    \r\n}\r\n\r\n\r\n",
  "sourcePath": "C:\\Users\\George\\Documents\\election\\contracts\\Election.sol",
  "compiler": {
    "name": "solc",
    "version": "0.4.18+commit.9cf6e910.Emscripten.clang"
  },
  "schemaVersion": "1.0.1",
  "updatedAt": "2019-05-19T04:10:04.184Z"
}